:020000040800F2
:20000000000C0020B122000811290008132900081529000817290008192900080055000026
:20002000FFFFFFFFFFFFFFFFFFFFFFFF1B2900081D290008000000001F2900082129000890
:20004000C7220008C7220008C7220008C7220008C7220008C7220008C7220008C722000818
:20006000C7220008C7220008C7220008C7220008C7220008C7220008C7220008C7220008F8
:20008000C7220008C7220008C7220008C722000823290008C7220008C7220008C722000875
:2000A000C7220008C7220008C7220008C7220008C7220008C7220008C7220008C7220008B8
:2000C000C7220008C7220008C7220008C7220008C722000827290008C7220008C722000831
:2000E000C7220008C7220008C7220008DFF80CD002F0F0FF00480047ED250008000C0020C4
:2001000010B5002001F0C5FC0121BDE81040C80501F048BD08B54FF4C06001F0C1FB14206D
:200120008DF8000000208DF801008DF8020001208DF80300684601F0B8FB08BDF8B5544EFE
:200140004FF480540325B8B90021E00201F02AFD0121042001F01CFDADF800408DF80250C8
:2001600010208DF803006946304601F0CEFD2146304601F03AFEF8BD0121042001F008FDEF
:20018000ADF800408DF8025004208DF803006946304601F0BAFDF8BD3E49032008607047AC
:2001A0003D48817A3B4811B105210160704701210160704710B53948016842688368002995
:2001C00015D0374881700C0A04710C0C8471090E01728272110A0173110C8173110E017480
:2001E0008374190A0175190C8175190E017610BD10B5FFF785FFFFF78DFFBDE8104000F043
:200200003FBE00F0B6B92748016831B121490968052902D1006880B270470020704710B5FF
:20022000204C2368002B09D01A4B1B68052B05D10A461D4902F034FF0020206010BD2DE977
:20024000F04107460C46194E03E03E2C09D93E2508E0D6F8040CC0F301100001C006F8D4B8
:20026000F3E72546601B84B22A46C021384600F081FF2946012001F061F9012001F03DF827
:20028000002CE6D1BDE8F081064900200860704700080140F000002084020020E8F7FF1FDB
:2002A000000000201C000020740100200050004070B5032001F094F90546094C074821687F
:2002C0002A4608444FF4887100F069FF032001F024F820682844206070BD704774010020B1
:2002E0001C0000201749487800224A70704770B5144C01206070144DD5F8440C6080608853
:20030000124E31880840400506D54FF6FF30C5F8440C0F48406880476188308801408905A5
:2003200006D54FF6FF51C5F8441C2178491C217061880140080403D5BDE8704000F0B4BDDD
:2003400070BD00002000002000500040080100207800002010B5FFF72DFF764800240068AE
:20036000847200F0F5F874484460744A4FF40641118001607248046010BD10B56D4800218A
:20038000006881726F4AD2794272C172002000F035FF4FF40071002000F048FF1021002077
:2003A00000F05AFF4021002001F0A4F88021002001F094F8002000F0DAFF634890F82C1050
:2003C000002001F0DBF8002000F0A7FF0021012000F02CFFC021012001F080F82021012059
:2003E00000F03AFF0021012000F04AFF4FF4C061022000F01BFF4FF48071022001F06EF81C
:200400000021022000F03CFF2021022000F024FF0021032000F00AFF4FF48871032001F06B
:2004200069F84021032001F0A9F84FF44051032000F026FF0021032000F00EFF002000F0E8
:20044000A4FC3F490120086010BD4048807A002802D03B49052008607047394904200860CC
:2004600070477047704728B932490820096808820020704734481838704728B92D490820FF
:2004800009680882002070472F481838704710B50021284A2128126807D1107800F07F0022
:2004A00021280FD1AFF22D010CE020280AD1107800F07F00212801D1AFF25501224B20207F
:2004C0001C3B187009B9022010BD9161002050828847002010BD17490968097801F07F0129
:2004E000212907D1022801D100207047222801D100207047022070471349103900F011BADB
:200500001149083900F00DBA0A490968C978042901D9002070470C4A303202EBC10100F04F
:2005200000BA09B102207047012801D90220704700207047FC000020405C0040080100209A
:20054000F000002080310008780000208402002010B50120FFF7F2FD01213A4801603A4A40
:200560000021016041604FF4E05111800160002010BD10B53348012101600021416003215C
:2005800001600020FFF7DAFD002010BD2D48016889B241F008010160016889B241F0040192
:2005A0000160FFF7F9BD10B5264C206880B220F004002060FFF7F4FD4FF40640206010BDEC
:2005C00070B5224C072800D020702078062504261F49062834D2DFE800F003070B10182458
:2005E000FFF7E1FF257070BDFFF7DDFF267070BD022060700320207070BD6078401E6070F6
:2006000060780028F8D1267070BDD1F8400C80B240F01000C1F8400C052020700A20607013
:2006200070BD6078401E607060780028F8D1D1F8400C80B220F01000C1F8400C257070BD90
:20064000257070BD405C004008010020F40000200050004010B5FF4C20B921680120088212
:20066000002010BDFC4800680068804720680A3010BD10B5F748F94A00685278C17891429E
:200680000AD8827842B9828832B98172F248006840688047002010BD022010BD10B5ED4CB0
:2006A00020B9216801200882002010BDEA4800688068804720680C3010BD10B5E54CE84A3E
:2006C00020681268C17892694079904721688A7A8AB118B9087908B9887808B1022010BDD1
:2006E000DD480068C068804720684179C172C1780173002010BD022010BD10B5D54909682C
:2007000018B902200882002010BDD648002202800A78530612D1497A8A0603D5027842F018
:2007200002020270490604D5017801F0FE0101702BE0017841F00101017026E002F07F02A0
:20074000012A01D1C74810BD022A24D14A7902F00F011306C44A0CD502EB8101D1F8001C7E
:20076000C1F30111012910D1017841F0010101700BE002EB8101D1F8001CC1F3013101293C
:2007800003D1017841F001010170B348006800698047B44810BD002010BD70B5AD4801689C
:2007A000087800F07F0028B9487A00F0DF004872002070BD022865D1488808B9087908B1A6
:2007C000022070BDA54C4B7923F08000A64D1A0607D505EB8002D2F8002CC2F30112120150
:2007E00006E005EB8002D2F8002CC2F3013212032678864202D90AB1897A09B9022070BD9E
:20080000190610D505EB8001D1F8001CC1F30111012931D1C0B2044600F039FE30212046F2
:2008200000F01AFD28E005EB8004D4F8001CC1F30131012920D14BF68F7680B98B4890F872
:200840002C10002000F09AFED5F8000C80B2304080F4805080F40050C5F8000C0CE0C0B20A
:2008600000F003FED4F8000C80B2304080F4805080F40050C4F8000C7748006840698047A6
:20088000002070BD022070BD70B572480268517921F08004744821F080050B0600EB850041
:2008A00005D5D0F8003CC3F301131B0104E0D0F8003CC3F301331B03684D2D78A54204D966
:2008C000548814B90BB1927A0AB9022070BD09060AD5D0F8001C48F6BF7289B2114081F057
:2008E0001001C0F8001C09E0D0F8001C4BF68F7289B2114081F48051C0F8001C5648006858
:2009000080698047002070BD10B552480068417A41F02001417250480068C0698047002043
:2009200010BD4C4A13685A8A20B98888801A1882002070470868104470472DE9F041454EAC
:20094000346810342088A168B1B1A8B1A588854200D90546A8B20746884780462088401BF4
:200960002080608828446080002000F0DBFD01463A46404600F013FC20883D4F302538B1FD
:200980003C49280208800021084600F0D7FD3D802088A188884204D3316803200872BDE8E3
:2009A000F08118B1316805200872F8E7316806200872314800210068304A80B2801C42F829
:2009C00010103D80EBE72DE9F05FDFF88890D9F8001001F1100420880E7ADFF894804FF0D3
:2009E000300AB8B9042E15D11E49891E087801280BD1214A00201268204B92B2921C43F804
:200A00001200A8F800A0087040E007261020A8F800003BE0A5880426A84200D902268542CB
:200A200000D90546A8B2A168074688478346002000F06DFD01463A46584600F09BFB394666
:200A4000002000F07BFD2088401B208060882844608015E0FC00002004010020C800002019
:200A600000010020F800002000500040780000200C0100200A010020505C00400060004031
:200A8000A8F800A0F3494FF440500880D9F800000672BDE8F09F70B50220EF4D29684C782A
:200AA0000A7853062DD1092C02D1FFF7E2FD3CE0052C0CD1C8787F2805D8887818B98888B1
:200AC00008B9887A08B1082048E000202DE0032C0AD1CA78012A28D18A880ABB497A890684
:200AE00023D5FFF711FF20E0012C1ED1CA78012A1BD18A88A2B9497A890616D5FFF74DFE98
:200B000013E002F07F01012904D10B2C0DD1FFF7D4FD0AE0022908D1012C02D1FFF73DFE76
:200B200003E0032C01D1FFF7AFFE40B1CB4800684169E0B28847032801D109200EE008B1EA
:200B400008200BE00620C64900220968C54B89B2891C43F81120C44A302111802968087263
:200B600070BD2DE9F041BC4E306842780024BB4D062A29680FD10278520671D180780128A3
:200B800001D1CC696CE0022801D10C6A68E0032866D14C6A64E0002A43D14388002B40D1A7
:200BA000C388022B3DD10379D3BB0278530604D1838813B9AFF2BD4452E002F07F02012AB4
:200BC0000CD18A69407900219047002848D13068807A002844D0AFF2DD4441E0022A3FD166
:200BE000417901F00F0001F070020B069F4907D501EB8001D1F8001CC1F30111090106E0FB
:200C000001EB8001D1F8001CC1F301310903984B1B78834224D91ABB11B3AFF221541FE0AA
:200C2000FFE7082A05D10078400619D1AFF2DB5416E00A2A14D1027802F07F02012A0FD147
:200C4000827A6AB142885AB902794AB9C288012A06D18A6940790021904708B9AFF2C354B9
:200C60004FF00908002734B13068478284610020A04700200AE0296830680969407888479F
:200C8000032803D1306880F8088088E631680A8AA2F57F43FF3B02D181F808807FE602282C
:200CA00000D012B90820087279E6087800061BD5C888824201D908820FE00ED228686D4B93
:200CC00090F82C00824201D21F7006E0B2FBF0F400FB142008B901201870286890F82C00E6
:200CE0008882BDE8F0416EE60320087259490003088054E610B5604890F82C10002000F07B
:200D00003DFC55480068017A082905D1514A48021080554A102010800120092900D00020FC
:200D200010BD38B54E4800684E4980B2001D51F8100080B201EB40040094474D2868017A27
:200D4000092915D02178017014F8011F4170641C608800F099FD2968488034F8060FA41C4D
:200D600000F092FD29688880A41C00942088C880286801210172C08810B9FFF78CFE01E080
:200D8000FFF7EFFEBDE83840B4E7F0B538490D780021364E48F68F770AE0CAB206EB820348
:200DA000D3F8004CA4B23C401443C3F8004C491CA942F2D340F08000C6F84C0CF0BD10B59F
:200DC000254C2068017A022901D0042904D1FFF7FAFD2068007A15E0062912D141780529C4
:200DE00009D10178490606D1C078FFF7CEFF23480068006A804719480068806880470820DB
:200E000000E0082021680872BDE8104072E710B5114C2068007A032801D0052804D1FFF761
:200E20008CFD2068007A0EE0072805D10B480068C0688047082006E0022801D0042801D183
:200E4000082000E0082021680872BDE8104051E7704700000A010020FC0000200001002013
:200E6000505C0040006000400C01002000500040C8000020F600002078000020040100206E
:200E800006480549016002220A7205494160054A826008680047000084020020FC0000201C
:200EA00078000020CC0000202DE9F05F4BF68F7748F6BF78DFF8A49240F68F7AA84E48F60D
:200EC0000F7BA84C07E147F6FF70C4F8440C088800F00F003070307800287BD104F540640C
:200EE0002068C0F301300003A9F800002068C0F301100001A9F80200206880B2384080F44C
:200F000000502060206880B200EA080080F020002060A4F540640888C0062BD4D4F8000CDB
:200F200080B200EA0B00C4F8000CFFF748FFD4F8000C80B23840B9F80010CA0401D580F42A
:200F40008050890401D580F40050C4F8000CD4F8000C80B200EA0800B9F80210CA0601D56D
:200F600080F01000890601D580F02000C4F8000CBDE8F09FD4F8000C80B201062BD5D4F823
:200F8000000C80B200EA0B00C4F8000CFFF717FFD4F8000C80B23840B9F80010CA0401D563
:200FA00080F48050890401D580F40050C4F8000CD4F8000C80B200EA0800B9F80210CA066F
:200FC00001D580F01000890601D580F02000C4F8000CCDE759E001052AD5D4F8000C80B202
:200FE00000EA0A00C4F8000CFFF79BFED4F8000C80B23840B9F80010CA0401D580F480507B
:20100000890401D580F40050C4F8000CD4F8000C80B200EA0800B9F80210CA0601D580F00C
:201020001000890601D580F02000C4F8000C9FE7000450D5D4F8000C80B200EA0A00C4F87A
:20104000000CFFF7E4FED4F8000C80B23840B9F80010CA0401D580F48050890401D580F4AA
:201060000050C4F8000CD4F8000C80B200EA0800B9F80210CA0601D580F01000890601D50E
:2010800080F02000C4F8000C72E704EB8000D0F8001C8DB229040CD5D0F8001C89B201EAF5
:2010A0000A01C0F8001C30782F49401E51F82000804728060FD5307804EB8000D0F8001C96
:2010C00089B201EA0B01C0F8001C30782749401E51F820008047D4F8440C2549088000044E
:2010E0003FF5F1AE44E770B51D4C1E4D204E2EE047F6FF70C5F8440C308800F00F0020707D
:20110000207805EB8000D0F8001C89B20A040ED5D0F8001C40F68F7289B21140C0F8001C3C
:2011200020781149401E51F8200080470FE009060DD5D0F8001C48F60F7289B21140C0F868
:20114000001C20780949401E51F820008047D5F8440C30800004CBD470BD00000A01002033
:20116000FA0000200050004040000020240000202200002010B5521C5208104B03EB4101C7
:20118000002A0BD0037810F8014F43EA042321F8023B891C401C521E002AF3D110BD521C33
:2011A0005208064B03EB4101002A06D008C920F8013B401C521E002AF8D170470060004019
:2011C000FA4908607047F948006880B27047F749091D08607047F548001D006880B27047EB
:2011E000F2480830006880B27047F0490C3108607047EE480C30006880B27047EB4920F090
:201200000700103108607047E8481030006880B27047E74A02EB8000C0F8001C7047E44950
:2012200001EB8000D0F8000C80B27047E04A02EB8000D0F8002C48F68F1392B21A400A432F
:20124000C0F8002C7047DA4901EB8000D0F8000CC0F3412040027047D54A02EB8002D2F82B
:20126000000C48F6BF7380B21840CB0601D580F01000890601D580F02000C2F8000C7047CF
:20128000CB4A02EB8002D2F8000C4BF68F7380B21840CB0401D580F48050890401D580F467
:2012A0000050C2F8000C704700B503460A461846FFF7B5FFBE49012A01EB830104D120F480
:2012C0008050C1F8000C00BD022AFCD120F01000C1F8000C00BDB64901EB8000D0F8000CE2
:2012E000C0F3011000017047B14901EB8000D0F8000CC0F3013000037047AD4901EB800038
:20130000D0F8001C48F6BF7289B2114081F0100181F02001C0F8001C7047A54901EB8000F5
:20132000D0F8001C4BF68F7289B2114081F4805181F40051C0F8001C70479D4901EB800012
:20134000D0F8001C48F68F7289B241F480711140C0F8001C7047964901EB8000D0F8001CFE
:2013600048F68F6289B21140C0F8001C7047904901EB8000D0F8001C48F68F6289B2114043
:20138000C0F8001C70478A4901EB8000D0F8001C48F68F7289B241F480711140C0F8001CDA
:2013A0007047834901EB8000D0F8001C48F68F7289B241F480711140C0F8001C70477C4919
:2013C00001EB8000D0F8001C48F68F6289B21140C0F8001C7047764901EB8000D0F8000C78
:2013E000C0F30110012800D000207047704901EB8000D0F8000CC0F30130012800D0002063
:2014000070476B4901EB8000D0F8001C40F68F7289B21140C0F8001C7047654901EB8000A9
:20142000D0F8001C48F60F7289B21140C0F8001C70475F4901EB8000D0F8001C48F68F72BB
:2014400089B2114041F48041C0F8001C7047584901EB8000D0F8001C48F68F7289B21140C3
:2014600041F04001C0F8001C7047514901EB8000D0F8001C490409D5D0F8001C48F68F7237
:2014800089B2114041F48041C0F8001C7047484901EB8000D0F8001C490609D5D0F8001C4D
:2014A00048F68F7289B2114041F04001C0F8001C70473F4A02EB8000D0F8002C48F68F733A
:2014C00092B21A400A43C0F8002C7047384901EB8000D0F8000CC0F303007047334A21F0CA
:2014E00001011032126892B202EBC000314A42F8101070472D4A21F001011032126892B227
:2015000002EBC0002B4A001D42F81010704727491031096889B201EBC000264951F81000AA
:2015200080B2704721491031096889B201EBC0002049001D51F8100080B270471B4A103250
:20154000126892B202EBC0001A4A801C42F8101070473E290AD94A09C90601D1521E92B21D
:201560004FF4004141EA8221016070474A08C90701D0521C92B29102016070470B4A10321A
:20158000126892B202EBC0000A4A801D02EB40023E2911D94809C90601D1401E80B24FF4AA
:2015A000004141EA8020106070470000405C004000500040006000404808C90701D0401C9F
:2015C00080B280021060EFE7B249096889B201EBC000B149801C51F81000C0F30900E3E749
:2015E000AC49096889B201EBC000AB49801D51F81000C0F30900D7E730B521F00104A54951
:201600000B689BB203EBC005A34B43F81540096822F0010289B201EBC000001D43F81020E4
:2016200030BD9C4A21F00101126892B202EBC000994A42F81010B7E7964A21F00101126811
:2016400092B202EBC000944A001D42F81010ABE79049096889B201EBC0008F4951F8100050
:2016600080B2A1E78B49096889B201EBC0008A49001D51F8100080B296E72DE9F0475309E3
:2016800054085E1E671CDFF814E2DFF80C924FF4004801291CD1DEF8505CADB205EBC00575
:2016A000AD1C09EB450C3E2A09D91D465FEAC26A00D1B5B248EA8525CCF8005012E0254675
:2016C0005FEAC27A00D0BDB2AD02CCF8005009E0022907D1DEF8505CADB205EBC005AD1C38
:2016E00049F81520012917D1DEF8501C89B201EBC000801D09EB40003E2A07D9D10600D178
:20170000B3B248EA83210160BDE8F087D10700D0BCB2A1020160F7E70229F5D1DEF8501CE6
:2017200089B201EBC000801D49F81020ECE710B55A4B594C01291CD1D3F8501C89B201EB5D
:20174000C000801C04EB40013E2A0AD95009D20601D1401E80B24FF4004242EA8020086066
:2017600010BD5008D20701D0401C80B28002086010BD0229FCD1D3F8501C89B201EBC0003F
:20178000801C44F8102010BD10B5444B424C01291CD1D3F8501C89B201EBC000801D04EBD1
:2017A00040013E2A0AD95009D20601D1401E80B24FF4004242EA8020086010BD5008D20753
:2017C00001D0401C80B28002086010BD0229FCD1D3F8501C89B201EBC000801D44F81020D4
:2017E00010BD2C49096889B201EBC0002A49801C51F81000C0F30900D6E62649096889B254
:2018000001EBC0002449801D51F81000C0F30900CAE6224AD2F8501C1F4B89B201EBC00159
:20182000891D53F8111011F47C4F01D00120BBE6D2F8501C89B201EBC000801C53F810001F
:20184000800501D00220AFE60020ADE6134B48F68F7203EB8000012908D1D0F8001C89B29B
:20186000114041F04001C0F8001C9DE60229FCD1D0F8001C89B2114041F48041C0F8001C1C
:2018800092E641EA00208FE6C1B2000A40EA01208AE60000505C00400060004000500040BC
:2018A0002B4908432B490860704770B50F24C27801784FF0E0230126E2B1D3F80C2D02F4D5
:2018C000E062C2F5E062120AC2F10405D4404278AA408578254015432A01194481F800245E
:2018E000007800F01F018E40400903EB8000C0F8006170BD01F01F008640480903EB800000
:20190000C0F8806170BD144A114001431148001F016070474FF0E02229B1D2F8101D014328
:20192000C2F8101D7047D2F8101D8143C2F8101D70474FF0E021042804D1086940F00400CA
:2019400008617047086920F004000861704700000000FA050CED00E080FFFF1FAE480168EE
:2019600041F0010101604168AC4A114041600168AB4A11400160016821F480210160416809
:2019800021F4FE014160002181607047A2490A6822F480320A600A6822F480220A60B0F511
:2019A000803F07D0B0F5802F03D1086840F4A02008607047086840F480300860704703462A
:2019C00000205909944A012901D1116804E0022901D1116A00E0516A03F01F020123934030
:2019E0000B4200D00120704730B500244FF4A0653120FFF7E4FF641C08B9AC42F8D131202E
:201A0000FFF7DDFF08B1012030BD002030BD824A116821F0F80141EAC000106070478149F5
:201A2000086070477C4B5A6822F47C1208431043586070477B4908667047774A516821F0D9
:201A400003010143516070477348406800F00C007047714A516821F0F0010143516070479E
:201A60006D4A516821F4E0610143516070476A4A516821F4605141EAC00050607047664ABF
:201A800019B1517A014351727047517A8143517270476449D831086070475F4A516821F49E
:201AA00040410143516070475B49002220310A7001F82029012805D0042802D1052081F88B
:201AC00020007047012081F820007047564908607047514A116A0143116270475249443964
:201AE0000860704710B54C4A516801F00C014F4B89B1042911D008291CD1516801F4701186
:201B0000022303EB9141536803F480333BB9484B594301600FE003600DE003600BE05368AF
:201B20009B0303D5424B5943016004E03F4B5943016000E00360516801F0F00109093D4BC2
:201B40005C5C0168E1404160546804F4E064240A1C5D21FA04F48460546804F46054E40AB6
:201B60001B5DD940C160526802F44042920B314B1B1F9A5CB1FBF2F1016110BD264A19B140
:201B800051690143516170475169814351617047214A19B19169014391617047916981431D
:201BA000916170471C4A19B1D1690143D1617047D1698143D1617047174A19B1D168014356
:201BC000D1607047D1688143D1607047124A19B111690143116170471169814311617047C4
:201BE00011494039086070470E49C86470470A49C87170470848416A41F0807141627047FF
:201C00000246002004498968114200D0012070470149887270470000001002400000FFF8DF
:201C2000FFFFF6FE000042428004424200127A0000093D001201002010B5954A811A1315BA
:201C4000D414904237D010DC924940181FD0984227D0A0424DD101211020FFF7ADFF0021CF
:201C6000BDE810401020FFF7A7BF99422DD0A14235D0B1F5406F3CD101210C022046FFF735
:201C80009BFF2046BDE810400021FFF795BF01210420FFF791FF0021BDE810400420FFF7E8
:201CA0008BBF01210820FFF787FF0021BDE810400820FFF781BF01212020FFF77DFF0021AB
:201CC000BDE810402020FFF777BF01214020FFF773FF0021BDE810404020FFF76DBF0121FF
:201CE0008020FFF769FF0021BDE810408020FFF763BF10BD10B501210846FFF75DFF0021A3
:201D0000BDE810400120FFF757BF2DE9F0410022CC7804F00F03E40601D58C7823430C8830
:201D20004FF00F0714F0FF0F4FF0010C1BD005680CFA02F40E882640A64210D1960007FA40
:201D400006FE25EA0E0803FA06F545EA0805CE78282E01D1446102E0482E00D10461521C17
:201D6000082AE5D305600A88FF2A1ED94568002202F108060CFA06F40E882640A64210D1CD
:201D8000960007FA06FE25EA0E0803FA06F545EA0805CE78282E00D14461CE78482E00D1B0
:201DA0000461521C082AE3D34560BDE8F0814FF6FF710180022181700421C170704702460E
:201DC000002092680A4200D001207047806880B2704702460020D2680A4200D0012070478E
:201DE000C06880B2704701617047416170470AB10161704741617047C160704741F4803274
:201E000082618161826181698069704710B5224B1A684FF68074224042EA00100843186042
:201E200010BD1E49C8617047F0B51B4D6B68C0F30346420D120184B2C0F301579440032F09
:201E400006D123F07062686820F0706068600AE0C00205D50320B040834343F0706202E008
:201E6000A34343F0706201B122436A60F0BD10B58A07120F0F23934021F0030406492144A1
:201E80008C689C438C608B68904003438B6010BD0014014000F8FEBF000001400000204215
:201EA000F94A116801F03801014311607047F6490A6822F008020A600A6802430A607047C1
:201EC000F1490A6822F010020A600A6802430A607047ED48ED494160ED4941607047EA4824
:201EE000016941F08001016170470420E649CA68D20701D001207047CA68520701D5022023
:201F00007047C968C906FBD503207047FF2000E0401E0028FCD1704710B50446FFF7E5FF6E
:201F200004E0FFF7F3FFFFF7E0FF641E012801D1002CF6D1002C00D1052010BD70B5054631
:201F400040F6FF763046FFF7E7FF042813D1CE4C206940F0020020616561206940F040005F
:201F600020613046FFF7D8FF012804D0216941F6FD721140216170BD70B540F6FF75284633
:201F8000FFF7CAFF042812D1BF4C206940F004002061206940F0400020612846FFF7BCFF91
:201FA000012804D0216941F6FB721140216170BD70B540F6FF752846FFF7AEFF042827D1F2
:201FC000B14CB248A060B248A060206940F020002061206940F0400020612846FFF79CFF3D
:201FE00041F6EF75042814D1206941F6DF7108402061206940F010002061A649A5200880D6
:202000000F20FFF789FF012802D021692940216170BD0128FCD021692940216170BD2DE9C9
:20202000F04105460E460F20FFF776FF042816D1954C206940F0010020612E800F20FFF734
:202040006BFF41F6FE7704280BD1300C68800F20FFF762FF012802D0216939402161BDE893
:20206000F0810128FBD0216939402161F7E770B506460D460F20FFF74FFF04280FD1824C87
:20208000206940F00100206135800F20FFF744FF012804D0216941F6FE721140216170BDBA
:2020A00070B506460D460F20FFF736FF042813D1754C7648A0607648A060206940F01000EC
:2020C000206135800F20FFF727FF012804D0216941F6EF721140216170BD2DE9F047C04310
:2020E000C4B2C0F30725C0F30746070E0F20FFF713FF04283AD1DFF890916449C9F808108A
:202100006349C9F80810D9F8101041F01001C9F81010DFF88481FF2C04D0A8F808480F202C
:20212000FFF7FAFE042806D1FF2D04D0A8F80A580F20FFF7F1FE042806D1FF2E04D0A8F8F4
:202140000C680F20FFF7E8FE042806D1FF2F04D0A8F80E780F20FFF7DFFE012806D0D9F803
:20216000101041F6EF721140C9F81010BDE8F08770B5054640F6FF763046FFF7CDFE0428DB
:202180002DD1414C4148A0604148A060206940F020002061206940F0400020613046FFF762
:2021A000BBFE41F6DF7104281AD1206908402061206940F01000206137481DB10021A0F826
:2021C000001802E0A521A0F800183046FFF7A4FE012804D0216941F6EF721140216170BD62
:2021E0000128FCD022690A40226170BD2DE9F04105460E461746244C2448A0602448A060DA
:202200000F20FFF789FE042814D1206940F01000206135433D431F4945F0F800891C0880FD
:202220000F20FFF779FE012804D0216941F6EF721140216113E71448C069800870471248F8
:20224000006A704700201049C969890700D50120704700200C490968890600D50120704753
:20226000094A19B11169014311617047116981431161704701460020034A01290ED1D169FC
:20228000C90700D0012070470020024023016745AB89EFCD00F8FF1F00F0FF1FD2680A42FA
:2022A000F1D00120EFE70149C860ECE70020024005480047FEE7FEE7FEE7FEE7FEE7FEE7CD
:2022C000FEE7FEE7FEE7FEE7ED000008002031490A6842F480320A604FF4A0630A6802F469
:2022E0000032401C0AB99842F8D10868800301D5012000E00020012831D12748026842F0CA
:2023000010020260026822F003020260026842F0020202604868486048684860486840F4D0
:2023200080604860486820F47C104860486840F4E8104860086840F08070086008688001B0
:20234000FCD5486820F003004860486840F0020048604868C0F381000228FAD17047FEE742
:20236000B4E70C48016841F00101016041680B4A1140416001680A4A11400160016821F494
:2023800080210160416821F4FE01416000218160E6E7000000100240002002400000FFF863
:2023A000FFFFF6FED54A11400143D5480160704710B5D4490868D44A1040B0F1005F08D1A9
:2023C0004B684FF4A0414FF00060FFF7EBFF9847FEE710BD10B503460020002203E09C5CEB
:2023E0002044C0B2521C8A42F9DB10BD10B504460020002202E0A35C5840521C8A42FADB53
:2024000010BD70B5C24CC14A2260C24A127862600022A26000F11202A281E181951E294607
:202420002046FFF7E3FF064629462046FFF7D2FF024661190E704A70A1892046BDE8704097
:20244000FDF7FDBE2DE9F04106460D461746FFF740FD3520FFF727FF00240BE0B00502D14F
:202460003046FFF76BFD30462968FFF7D8FD2D1D361D241DBC42F1D3BDE8F041FFF72FBD5E
:2024800010B5014608689F4A02EB0020904201D2002010BD091D4FF48072FFF7D3FF0120F4
:2024A00010BD10B5FDF7AFFE08B9002010BD99494A88824202D04880002010BD00224A8050
:2024C00010BD10B5FFF7EDFF08B9002010BD01468F48FDF7A4FE8E488C4A0168914201D06D
:2024E000002010BD41680A2901D0002010BD894980680870864810BD81498748091D086061
:2025000070474FF00060006AA0F5B4415A3901D1012070470020704700B5FFF7F2FF012898
:2025200002D1C006406A00BD4FF0FF3000BD0EB57A480168009141680191806802900098A4
:202540000199400800EB9100029900EBD1000EBD1CB5FFF7ECFF0190FFF7DEFF45F65A212F
:202560000091411C0CD1042269466D48FFF76AFF6B48042201A9001DFFF764FF01201CBDB4
:202580000199884201D000201CBD01201CBD08B500F0D9F900F0E8F9FDF733FE00F024FA90
:2025A0006049012008601E2000F0EBF900F08CFC00F072F900F0DBFB00F09AFA4FF4FA700D
:2025C00000F0DFF9FDF714FEFFF7C2FF00280CD100F08EFA54A3009301231A46102118465C
:2025E00000F038FB00F032FAF4E708BD2DE9FC4700250026FFF7CBFF00F0E7FC4FF000671F
:202600004FF4AA48222802D0F869404569D049A3009301231A460821002000F01BFB49A30C
:20262000009301231A462021002000F013FB00F00DFA00F093FC0028FBD14FF47F4948E087
:202640003849002008602EB16D1C322D02DDFFF753FFFEE701A8FFF734FF0446CCB3E0899A
:2026600005280ED104F11000FFF70AFF20B149460020FFF7C6FE04E04FF6FF710020FFF761
:20268000C0FEE089A0F5704105390ED1CDF80080234804226946001FFFF7D4FE4946002095
:2026A000FFF7AFFEF86940451BD0E0894FF60171884203D149460020FFF7A3FEE089A0F5A4
:2026C0007F41023905D149460020FFF79AFE01260025012000F055F900F040FC0128B2D169
:2026E000AEE7FDF78EFD012000F04BF900F000FAFFF75EFE0020BDE8FC87000080FFFF1F50
:2027000008ED00E0005000080000FE2F5555AAAAA0020020220100200400FA05E8F7FF1F5C
:20272000200000089001224220656E6372797074696F6E002020466163746F7279204D6F1D
:2027400064650000204669726D77617265205570646174650000000064480068C0B2704793
:2027600063480068C0B2704761480C380068C0B270475F48001D0068C0B270475C4808306E
:202780000068C0B270475A4810380068C0B2704756480068C0B2704755480068C0B27047D0
:2027A000534810380068C0B2704751480C380068C0B270474E48001D0068C0B270474C485F
:2027C00008300068C0B2704770B54A48816941F004018161484C206820F070402060206893
:2027E00040F000402060A06840F40040A060A4F604040A2000F0D7F8404DD5F83C01C0B2D9
:2028000008B9002070BDD4F80C0820F40040C4F80C080A2000F0C7F8D5F83C01C0B2012828
:2028200000D170BD022070BD70B53248816941F010018161324C606820F4706060606068EC
:2028400040F400606060E06840F48060E0600A2000F0A9F82B4DD5F82801C0B208B900200C
:2028600070BDE06820F48060E0600A2000F09BF8D5F82801C0B2012800D170BD022070BD24
:2028800010B5FFF7A1FF0446FFF7CEFF44EA00101D49C0B2087010BD10B50024FFF7F0FFA7
:2028A0001948007838B918492022091D174800F0F7FB012412E0222807D113492022243118
:2028C000124800F0EDFB012408E0012806D10E492022091D0D4800F0E3FB0124204610BD7F
:2028E0000A48007E70470948C0697047340122423081214200100240040801400000214271
:20290000001001400000224228010020DC0300207047FEE7FEE7FEE7FEE77047704770474A
:202920007047FDF7E4BC704741060D48826942F0010282610B48426822F0E0624260426859
:202940000A434260704710B5FFF70BFD0020FFF787F80020FFF78BF8BDE810400120E3E700
:2029600000100240000001404FF0E020016921F0040101611B480921017042F22831418057
:2029800070471849498848434FF0E021486100238B61012008610869C20701D0C003FAD5A4
:2029A0000B618B6170470F49097848434FF0E021486100238B61012008610869C20701D017
:2029C000C003FAD50B618B61704730B504464FF47A7504E02846FFF7D4FF641EA4B2002CD6
:2029E000F8D130BD6C0100200F48816941F0100181610E48016821F470210160016841F4CB
:202A000040310160C16821F01001C160016821F070410160016841F040510160C16821F026
:202A20008001C160704700000010024000100140FF4A136803F47F4303431360FD480160BE
:202A40000021416001214160016070472DE9F04100240026DFF8E08306F1B0000021C0B2D4
:202A6000FFF7E6FF00210846FFF7E2FF00211020FFF7DEFF0025C6F10707C5F17F0008EBFF
:202A8000C000C15D00206206140ECA0701D0641CE4B24908401CC0B20828F4D30121204658
:202AA000FFF7C6FF6D1CEDB2802DE6D3761CF6B2082ED1D3BDE8F08100B500218D20FFF72A
:202AC000B7FF00211420FFF7B3FF0021AF205DF804EBADE700B500218D20FFF7A9FF002139
:202AE0001020FFF7A5FF0021AE205DF804EB9FE710B40021D04B0022002003EBC0046254A9
:202B0000401CC0B28028F8D3491CC9B20829F3D310BC9BE710B57F2813D83F2911D807237D
:202B2000A3EBD103DBB201F00701C1F107040121A140C9B2C04C04EBC0001AB1C25C0A4381
:202B4000C25410BDC25C8A43C25410BD2DE9F043DDF81C900F4690461E4605460CE03C46B2
:202B600006E04A4621462846FFF7D4FF641CE4B2B442F6D96D1CEDB24545F0D9BDE8F04313
:202B800064E72DE9F74F81B000904FF00009DFF8ACB24FF0000830E0009F039810F809505E
:202BA000002600244FF0010A15E0280606D59BF8002038460299FFF7ADFF08E09BF800009A
:202BC000524600B1002238460299FFF7A3FF7F1CFFB2641CE4B29BF801008442E5D36806F7
:202BE000050E761CF6B2082EDBD30298401CC0B2029008F1010808F0FF089BF8020080454F
:202C0000CAD309F1010909F0FF09B9F1100FC0D3BDE8FF8F7FB50D460899044680290ED288
:202C2000864842708370864800EB01111022684600F036FA6A4629462046FFF7A2FF7FBDFE
:202C40000346012000E058430A00A1F10101C9B2F9D170472DE9FF5F0E9C05468846174661
:202C6000764847708370E9460DF1100A7AE07A2D04D9002508F1100808F0FF08B8F13A0FA0
:202C800003D90025A846FFF733FF2078802810D26B4901EB00111022684600F001FA6A46CF
:202CA00041462846FFF76DFF641C05EBC700C5B258E0A12821D2624901EB001100204A46C3
:202CC0000B78135411F8013F16183374491C401C80B21028F4D36A4641462846FFF751FF0F
:202CE00005EBC700C5B2524641462846FFF749FF05EBC700C5B2A41C34E0514E361FA6F14E
:202D0000040B301F00F0DEF9C0F34F0028E02188BBF8002091421ED10020494632780A548F
:202D200016F8012F0B181A74761C401C80B21028F4D36A4641462846FFF723FF05EBC70011
:202D4000C5B2524641462846FFF71BFF05EBC700C5B2A41C06E00BF1020B2036401E80B29C
:202D60000028D4D12078002881D1BDE8FF9F00B53448816941F008018161816941F01001CE
:202D80008161816941F02001816129484FF033310C380160C1684FF6FF721143C1602A48B4
:202DA000416821F47F214160416841F44C314160C16841F4C051C160D0F8001421F47061C6
:202DC000C0F80014D0F8001441F44071C0F80014D0F80C1441F00401C0F80C140021AE20B4
:202DE000FFF726FE0021D520FFF722FE00215020FFF71EFE0021A820FFF71AFE00213F2073
:202E0000FFF716FE0021D320FFF712FE00210846FFF70EFE00214020FFF70AFE00218D20D0
:202E2000FFF706FE00211420FFF702FE00210DE00C0C0140AC012242FC0300207001002025
:202E40002732000800100240001001402020FFF7EFFD00210220FFF7EBFD0021A120FFF753
:202E6000E7FD0021C020FFF7E3FD0021DA20FFF7DFFD00211220FFF7DBFD00218120FFF7D1
:202E8000D7FD0021EF20FFF7D3FD0021D920FFF7CFFD0021F120FFF7CBFD0021DB20FFF78A
:202EA000C7FD00213020FFF7C3FD0021A420FFF7BFFD0021A620FFF7BBFD0021AF20FFF715
:202EC000B7FD5DF804EB13E66F48816941F008018161816941F0100181616C4801686C4A63
:202EE0001140016001686B4A11430160816841F4E64181606848416821F4700141604168FE
:202F000041F4000141607047FF2064490968002900D008477047FF2060494969002900D074
:202F200008477047FF205D490969002900D008477047FF205949C968002900D00847704764
:202F4000FF2056498968002900D008477047FF2052494968002900D00847704710B5FFF79E
:202F6000D3FF01280ED0FFF7F2FF58B1FFF7E8FF40B1FFF7DEFF28B1FFF7D4FF10B1FFF78E
:202F8000CAFF00BB0A20FFF7FCFCFFF7E0FF08B9022010BDFFF7D4FF08B9042010BDFFF79F
:202FA000C8FF08B9082010BDFFF7BCFF08B9102010BDFFF7B0FF08B9202010BDFFF7A4FF19
:202FC000012800D110BD002010BD70B500240025FFF79AFF012800D10124FFF7B8FF08B9B3
:202FE00044F00204FFF7ACFF08B944F00404FFF7A0FF08B944F00804FFF794FF08B944F0E5
:203000001004FFF788FF08B944F0200424B30A20FFF7B7FCFFF778FF012800D10125FFF7D9
:2030200096FF08B945F00205FFF78AFF08B945F00405FFF77EFF08B945F00805FFF772FFA3
:2030400008B945F01005FFF766FF08B945F02005AC4201D1204670BD002070BD10B5044640
:203060004CB9FFF77BFF0028FBD010BD641EA4B20CB9002010BD0120FFF783FCFFF76EFF98
:203080000028F3D010BD000000100240040C014000FF00F08800880800100140DC0300207E
:2030A00040EA01039B070AD102E008C9121F08C0042AFAD203E011F8013B00F8013B521EF3
:2030C000F9D270470146002000E0401C0A5C002AFBD17047064C074D06E0E06840F00103B0
:2030E00094E8070098471034AC42F6D3FDF702F8283A0008483A000870B58C1810F8015B64
:2031000015F0070301D110F8013B2A1106D110F8012B03E010F8016B01F8016B5B1EF9D145
:203120002B0706D4002301E001F8013B521EFBD50AE010F8013BCB1A921C03E013F8015BFF
:2031400001F8015B521EF9D5A142D7D3002070BD02E008C8121F08C1002AFAD170477047F3
:20316000002001E001C1121F002AFBD1704712010002020000408304405700020102030130
:2031800009024300020100C032090400000102020100052400100105240100010424020248
:2031A0000524060001070582030800FF09040100020A00000007050302400000070581024D
:2031C000400000040309042603530054004D006900630072006F0065006C006500630074C4
:2031E0000072006F006E006900630073003203530054004D00330032002000560069007262
:20320000007400750061006C00200043004F004D00200050006F00720074002000200000F4
:203220000000000000000000007CC6C6CED6D6E6C6C67C00000000000018387818181818F6
:2032400018187E0000000000000081C3663C183C66C3810000000000000303030313337F0B
:20326000FF7E301000000000001818242442428181E724243C000000003C2424E781814279
:20328000422424181800000000000018183C3C7E7EFFFF0000000000000000FFFF7E7E3C9C
:2032A0003C1818000000000002060A122242824222120A060200000080C0A090888482848E
:2032C0008890A0C0800000000000183C7EFF00183C7EFF00000000000000FF7E3C1800FF84
:2032E0007E3C18000000000002060E1E3E7EFE7E3E1E0E060200000080C0E0F0F8FCFEFC20
:20330000F8F0E0C0800000008183878F9FBFFFBF9F8F87838100000081C1E1F1F9FDFFFDB0
:20332000F9F1E1C18100000000FF00183C7EFF00183C7EFF0000000000FF7E3C1800FF7E91
:203340003C1800FF00000000000000003071FF703000000000000000007CC606063C060644
:2033600006C67C0000000000000C1C3C6CCCFE0C0C0C1E000000000000FEC0C0C0FC0E06DB
:2033800006C67C0000000000003860C0C0FCC6C6C6C67C000000000000FEC606060C183019
:2033A0003030300000000000007CC6C6C67CC6C6C6C67C0000000000007CC6C6C67E060647
:2033C000060C780000000000007CC6C6CED6D6E6C6C67C00000000000018387818181818CB
:2033E00018187E0000000000007CC6060C183060C0C6FE0000000000007CC606063C060609
:2034000006C67C0000000000000C1C3C6CCCFE0C0C0C1E000000000000FEC0C0C0FC0E063A
:2034200006C67C00000000000000000000000000000000000000000000183C3C3C18181830
:2034400000181800000000006666662400000000000000000000000000006C6CFE6C6C6CCC
:20346000FE6C6C0000000018187CC6C2C07C0686C67C181800000000000000C2C60C18302C
:2034800060C686000000000000386C6C3876DCCCCCCC76000000000030303060000000001C
:2034A0000000000000000000000C18303030303030180C00000000000030180C0C0C0C0C20
:2034C0000C1830000000000000000000663CFF3C66000000000000000000000018187E188F
:2034E000180000000000000000000000000000000018183000000000000000000000FE0056
:2035000000000000000000000000000000000000181800000000000000000002060C18301F
:2035200060C0800000000000007CC6C6CED6D6E6C6C67C0000000000001838781818181853
:2035400018187E0000000000007CC6060C183060C0C6FE0000000000007CC606063C0606A7
:2035600006C67C0000000000000C1C3C6CCCFE0C0C0C1E000000000000FEC0C0C0FC0E06D9
:2035800006C67C0000000000003860C0C0FCC6C6C6C67C000000000000FEC606060C183017
:2035A0003030300000000000007CC6C6C67CC6C6C6C67C0000000000007CC6C6C67E060645
:2035C000060C780000000000000000001818000000181800000000000000000018180000D1
:2035E00000181830000000000000060C18306030180C0600000000000000000000FE000059
:20360000FE0000000000000000006030180C060C1830600000000000007CC6C60C181818E2
:20362000001818000000000000007CC6C6DEDEDEDCC07C00000000000010386CC6C6FEC69C
:20364000C6C6C6000000000000FC6666667C66666666FC0000000000003C66C2C0C0C0C076
:20366000C2663C000000000000F86C6666666666666CF8000000000000FE6662687868604C
:203680006266FE000000000000FE6662687868606060F00000000000003C66C2C0C0DEC6BE
:2036A000C6663A000000000000C6C6C6C6FEC6C6C6C6C60000000000003C181818181818E4
:2036C00018183C0000000000001E0C0C0C0C0CCCCCCC78000000000000E6666C6C78786CC8
:2036E0006666E6000000000000F06060606060606266FE000000000000C6EEFEFED6C6C610
:20370000C6C6C6000000000000C6E6F6FEDECEC6C6C6C6000000000000386CC6C6C6C6C671
:20372000C66C38000000000000FC6666667C60606060F00000000000007CC6C6C6C6C6C6E5
:20374000D6DE7C0C0E00000000FC6666667C6C666666E60000000000007CC6C660380C063F
:20376000C6C67C0000000000007E7E5A1818181818183C000000000000C6C6C6C6C6C6C6B5
:20378000C6C67C000000000000C6C6C6C6C6C6C66C3810000000000000C6C6C6C6C6D6D679
:2037A000FE6C6C000000000000C6C66C6C38386C6CC6C6000000000000666666663C1818F7
:2037C00018183C000000000000FEC6860C183060C2C6FE0000000000003C3030303030309D
:2037E00030303C0000000000000080C0E070381C0E06020000000000003C0C0C0C0C0C0CAF
:203800000C0C3C000000000000000010386CC60000000000000000000000000000000000DA
:2038200000000000FF0000303018000000000000000000000000000000000000780C7CCC45
:20384000CCCC76000000000000E06060786C66666666DC0000000000000000007CC6C0C0A0
:20386000C0C67C0000000000001C0C0C3C6CCCCCCCCC760000000000000000007CC6FEC0C4
:20388000C0C67C000000000000386C6460F060606060F000000000000000000076CCCCCC84
:2038A000CCCC7C0CCC78000000E060606C7666666666E600000000000018180038181818F4
:2038C00018183C0000000000000606000E06060606060666663C000000E06060666C7878D4
:2038E0006C66E60000000000003818181818181818183C000000000000000000ECFED6D646
:20390000D6D6D6000000000000000000DC6666666666660000000000000000007CC6C6C617
:20392000C6C67C000000000000000000DC66666666667C6060F000000000000076CCCCCC9F
:20394000CCCC7C0C0C1E000000000000DC7662606060F00000000000000000007CC660387F
:203960000CC67C000000000000103030FC30303030361C000000000000000000CCCCCCCC4B
:20398000CCCC7600000000000000000066666666663C18000000000000000000C6C6C6D69F
:2039A000D6FE6C000000000000000000C66C3838386CC6000000000000000000C6C6C6C6A3
:2039C000C6C67E060CF8000000000000FECC183060C6FE0000000000000E181818701818A7
:2039E00018180E00000000000018181818001818181818000000000000701818180E1818BB
:203A000018187000000000000076DC0000000000000000000000000000010101010131710D
:203A2000FF70300000000000483A00080000002074010000F8300008FC3A000874010020C5
:203A40008C0A000060310008141A03531254124D12331232123102153013DB020C1C08516A
:203A60000E040A11B1245133C2011208136E313308121A800832431355031B087B0413634A
:203A8000041B0865041A8F041AD7041323051B08F9081A01081A09044132401AC33832044D
:203AA0001AC70832261AED08623233201A1A046729741A4B3C0916A41A5B1C011E3C02043D
:203AC00006222D0102030404A5060708091359271B0861041A69041A73041A7D041A87044D
:203AE000711B70910C1A99041AA1041AAB041AB5041ABF04199B413A305A3100FFFFFFFF58
:203B0000FFFFFFFFFFFFFFFFFFFFFFFFFFFFFFFFFFFFFFFFFFFFFFFFFFFFFFFFFFFFFFFFC5
:203B2000FFFFFFFFFFFFFFFFFFFFFFFFFFFFFFFFFFFFFFFFFFFFFFFFFFFFFFFFFFFFFFFFA5
:203B4000FFFFFFFFFFFFFFFFFFFFFFFFFFFFFFFFFFFFFFFFFFFFFFFFFFFFFFFFFFFFFFFF85
:203B6000FFFFFFFFFFFFFFFFFFFFFFFFFFFFFFFFFFFFFFFFFFFFFFFFFFFFFFFFFFFFFFFF65
:20500000282C00203D81000879AF00087BAF00087FAF000883AF000887AF00080000000046
:205020000000000000000000000000008BAF00088DAF0008000000008FAF000891AF00085C
:20504000538100085381000853810008538100085381000853810008538100085381000870
:20506000538100085381000853810008538100085381000853810008538100085381000850
:205080005381000853810008538100085381000893AF0008538100085381000853810008C2
:2050A000538100085381000853810008538100085381000853810008538100085381000810
:2050C00053810008538100085381000853810008538100089BAF000853810008538100087A
:2050E000538100085381000853810008DFF80CD008F008FD00480047B58C0008282C002020
:2051000010B5002002F016F80121C80502F0BFF810BD08B54FF4C06001F0D8FE14208DF8A5
:20512000000000208DF801008DF8020001208DF80300684601F0CFFE08BD38B50446BCB9BC
:205140004FF480515B4802F009FA0121042002F091F84FF48050ADF8000003208DF8020080
:2051600010208DF803006946524802F04DF904E04FF480514F4802F0EFF938BD03204E49DE
:20518000086070474D48817A19B105214A4A116002E00121484A1160704710B5484B1868D5
:2051A000484BD3F8EC17464B08331A68A8B1464CA070030A2371030CA371030E2372A172C8
:2051C0000B0A23730B0CA3730B0E2374A274130A2375130CA375130E237610BD10B5FFF703
:2051E0008FFFFFF796FF01F03DF810BD3748006838B131480068052803D13448006880B2DB
:2052000070470020FCE770B504460D462F48006858B129480068052807D12A462C49204601
:2052200008F00CFC00202949086070BD002001E0411C88B241F658318842F9DB70472DE984
:20524000F04104460D462DE04FF0000813E02148006800F0300717F0100F00D10CE0FFF768
:20526000E5FF08F101001FFA80F8B8F5FA6F02DD0020BDE8F081EAE700BF3E2D01DD3E2657
:2052800000E02E46A81B85B23246C021204601F007FA3146012001F04DFC012001F0E0FA51
:2052A00005B900E0D0E700BF0120E2E7002007490860704700080140F400002014040020CC
:2052C000E8F7FF1F00F0FF1F000000201C00002004030020045C004010B5032001F079FC52
:2052E00004460949094A1268881822464FF4887101F0EFF9032001F0C7FA0448006820443B
:205300000249086010BD7047040300201C0000201C49087800211B4A1170704710B501206A
:205320001849087018480068184908800846008800F4806016490988084206D04FF6FF30B5
:20534000114908601349486880471048008800F400700F490988084208D04FF6FF500A4982
:2053600008600D480078401C0B4908700748008800F4004006490988084201D000F090FF4B
:2053800010BD00005E000020445C00405C0000200E010020700000202000002010B5FFF7AC
:2053A000FCFE002083490968887200F01DF90020814908604FF40640804908800846008894
:2053C0007F49C1F8400C00207E49086010BD10B500207849096888727B48C07975490968A8
:2053E0004872002073490968C87201F0A3F94FF40071002001F0B8F91021002001F0CDF961
:205400004021002001F072FB8021002001F05BFB002001F06DFA6D4890F82C10002001F0A3
:20542000AAFB002001F030FA0021012001F09CF9C021012001F047FB2021012001F0ADF996
:205440000021012001F0C4F94FF4C061022001F08BF94FF48071022001F035FB00210220A7
:2054600001F0B6F92021022001F097F90021032001F07AF94FF48871032001F037FB40211D
:20548000032001F078FB4FF44051032001F0A0F90021032001F081F9002000F057FE0120CF
:2054A0004849086010BD4A48817A11B10521454A11607047042043490860704770477047BD
:2054C000014629B908203B4A12681082002070474048FCE7014629B90820364A12681082CB
:2054E000002070473B48FCE770B505460024212D09D130480068007800F07F00212810D1C2
:20550000AFF22F040DE0202D0BD12A480068007800F07F00212801D1AFF25B0420202E490E
:2055200008700CB9022070BD22480068846100212048006841820020A0470020F3E701462C
:205540001C480068007800F07F00212807D1022901D100207047222901D10020FAE7022063
:20556000F8E710B504461D49204600F0D9FA10BD10B504461A49204600F0D2FA10BD70B55B
:2055800004460C480068C578042D01DD002070BD144800EBC501204600F0C2FAF7E7024627
:2055A000002901DD02207047012A01DD0220FAE70020F8E704010020445C00400E010020CC
:2055C00000500040F4000020C2E0000870000020140400206400002060000020C4000020CD
:2055E000CC000020D400002010B50120FFF7A5FD0124514804600020504908800846008814
:205600004F49C1F8400C00204B49091D08604FF4E0504A490880084600884949C1F8400CB0
:20562000002010BD10B501204349086000204449C1F8440CFFF781FD03203F490860002046
:2056400010BD10B53C48006884B244F008043C48C0F8404C3848006884B244F004043848B4
:20566000C0F8404CFFF78AFD10BD10B53248006884B224F004043248C0F8404CFFF782FD70
:205680004FF406402C49086010BD70B50446072C01D02C4804702B480078082843D2DFE885
:2056A00000F0040A1016212F4344FFF7DEFF0620244908703DE0FFF7D8FF04202149087021
:2056C00037E002201F4948700320087031E01D484078401E1B4948700846407808B9042043
:2056E000087026E01448006885B245F010051448C0F8405C0520134908700A20487018E064
:2057000010484078401E0F4948700846407848B90948006885B225F010050948C0F8405C45
:205720000620087005E000BF00BF06200549087000BF00BF70BD0000405C00400E010020C6
:2057400000500040F900002010B504462CB90120FA4909680882002010BDF949096808683D
:205760008047F64800680A30F6E710B5F3480068C078F4494978884213DCF04800688078B6
:2057800078B9EE480068808858B9EC480068C078EA4909688872EA49096848688047002074
:2057A00010BD0220FCE710B504462CB90120E34909680882002010BDE1490968886880479C
:2057C000DE4800680C30F6E710B5DC4B1B68D978DA4B1B685879DC4B1B689A69904704461B
:2057E000D6480068807AE8B13CB9D4480068007918B9D2480068807808B1022010BD8CB966
:20580000CF490968C8688047CC4800684079CB490968C872C9480068C078C8490968087366
:205820000020EBE70220E9E710B504462CB90220C24909680882002010BD0020C3490880C7
:20584000BE480068007810F07F0F1CD1BB490968487A10F0200F05D0BC49097841F00201F2
:20586000BA4A117010F0400F06D0B849097801F0FE01B64A117005E0B449097841F00101F5
:20588000B24A11703AE0AD480068007800F07F00012801D1AD48CFE7A8480068007800F0C7
:2058A0007F00022828D1A54A1268517901F00F0011F0800F0FD0A64A02EB8002D2F8002C4F
:2058C00002F03002102A16D1A04A127842F001029E4B1A700FE09E4A02EB8002D2F8002C2B
:2058E00002F44052B2F5805F05D1984A127842F00102964B1A7001E000209DE790490968E9
:2059000008698047914897E72DE9F0478B480068007800F07F0454B988480068407A00F096
:20592000DF008649096848720020BDE8F087022C7ED182480068408818B980480068007961
:2059400008B10220F1E77F4E7C48006890F8058028F080094F4679480068407910F0800FE7
:2059600007D07B4800EB8700D0F8000C00F0300506E0774800EB8700D0F8000C00F44055AE
:205980003078484504D91DB16C480068807A08B90220CAE718F0800F10D06D4800EB8700DF
:2059A000D0F8000C00F03000102845D1F8B201F058F83021F8B200F0F0FE3DE0644800EB2D
:2059C0008700D0F8000C00F44050B0F5805F33D1CFB9604890F82C10F8B201F0CCF85C4968
:2059E00001EB8701D1F8001C89B24BF68F7201EA020080F4805080F40050554901EB8701CA
:205A0000C1F8000C18E0F8B201F012F8504901EB8701D1F8001C89B24BF68F7201EA0200C8
:205A200080F4805080F40050494901EB870100E008E0C1F8000C00BF414909684869804799
:205A4000002072E700BF02206FE72DE9F0413B480068447924F080063546384800684079F1
:205A600010F0800F07D03A4800EB8500D0F8000C00F0300706E0364800EB8500D0F8000C2B
:205A800000F440572F480078A84208D92B480068408820B91FB129480068807A10B90220B7
:205AA000BDE8F08114F0800F12D0294901EB8501D1F8001C89B248F6BF7201EA020080F08B
:205AC000100000BF224901EB8501C1F8000C12E01F4901EB8501D1F8001C89B24BF68F7227
:205AE00001EA020080F4805000BF194901EB8501C1F8000C00BF12490968886980470020BA
:205B0000CEE710B50D480068407A40F020000B49096848720A490968C8698047002010BD1C
:205B200010B5024605480068438AAAB98888C01A024C24682082002010BD000004010020FB
:205B4000100100206C00002008010020FE000020005000407000002008681844ECE72DE96C
:205B6000F041FF48006800F110042588A068C0B1BDB1A688AE4200D92E46B0B2A168884707
:205B800007462088801B2080608830446080002000F0C4FF8046B2B20146384600F099FD51
:205BA00000BF208850B14FF44050EE4908800021084600F0BFFF3020EB4908802088A188F1
:205BC000884204DB0320E6490968087218E02088002804DD0520E2490968087210E0208863
:205BE00070B90620DE49096808720021DF48006880B2801CDE4A42F810103020DA49088049
:205C0000BDE8F0812DE9F047D548006800F110042588D3480068067AD5B9042E18D1D54821
:205C2000007801280FD10021D048006880B2801CCF4A42F810103020CB49088000BF002036
:205C4000CC49087003E007261020C749088027E0A788BD4201D8042000E002200646AF426E
:205C600000D92F46B8B2A16888478046002000F04AFF8146BAB20146404600F011FDB9B20C
:205C8000002000F057FF2088C01B20806088384460803020B44908800002B249088000BF1E
:205CA000AF4909680E72BDE8F08770B50224AC4800684578AA480068007810F07F0F4AD100
:205CC000092D03D1FFF751FD044665E0052D14D1A3480068C0787F280BDCA148006880786E
:205CE00038B99F480068808818B99D480068807A08B108266BE000244EE0032D14D19848CB
:205D00000068C07801280DD195480068808848B993480068407A10F0200F03D0FFF7F1FEAA
:205D2000044639E0022437E0012D35D18C480068C07801280DD18A480068808848B9884801
:205D40000068407A10F0200F03D0FFF7DDFD044622E0022420E082480068007800F07F00C4
:205D6000012805D10B2D17D1FFF72EFD044613E07B480068007800F07F0002280BD1012D60
:205D800003D1FFF7C1FD044606E0032D04D1FFF75CFE044600E002244CB1774800684169D8
:205DA000E8B288470446032C01D109260FE00CB108260CE0062600216C48006880B2801C03
:205DC0006B4A42F8101030206749088000BF644909680E7270BD2DE9F05F6148006846786E
:205DE0000024A146062E1AD15D480068007810F07F0F13D15A4909688878012803D15E49CA
:205E00000968CC690AE0022803D15B4909680C6A04E0032802D1584909684C6A99E0002E18
:205E200067D14F4800684088002862D14C480068C08802285DD14A4800680079002858D1A8
:205E400047480068007810F07F0F06D144480068808810B9AFF22F647BE0414800680078B1
:205E600000F07F00012811D13D4909684879424909688A690021904700286AD138480068BE
:205E8000807A002865D0AFF25F6462E034480068007800F07F0002285BD13148006840794A
:205EA00000F00F072E480068407900F070082C480068407910F0800F07D0304800EB8700F8
:205EC000D0F8000C00F0300A06E02C4800EB8700D0F8000C00F4405A29480078B84238D9A2
:205EE000B8F1000F35D1BAF1000F32D0AFF2C7642FE0082E08D11A480068007810F07F0F6E
:205F000027D1AFF2BB7424E00A2E22D114480068007800F07F0001281BD111480068807A0F
:205F2000B8B10F480068408898B90D480068007978B90B480068C08801280AD108490968F0
:205F400048790D4909688A690021904708B9AFF2A974ECB102480068A0F81290004811E08D
:205F6000040100201401002016010020505C004000600040FC00002008010020005000402F
:205F80006C000020006884610020A04700250FE0A94A12685078A94A1268116988470546D7
:205FA000032D05D10920A44909680872BDE8F09FA1480068008AA0F57F41FF3904D1092040
:205FC0009D4909680872F1E7022D03D09A480068008A20B90820984909680872E6E79648CA
:205FE0000068007810F0800F3BD093480068B0F806B091480068008A584504D98E490968F9
:20600000A1F810B023E08C480068008A8A490968C98888421BDA88480068008A8749096807
:2060200091F82C10884203DA0020854908700EE081480068008A8149096891F82C1090FB5A
:20604000F1F201FB120010B901207D4908707B48006890F82C10784800688182FFF7D2FD48
:2060600006E003207449096808720003754908809CE710B5744890F82C10002000F07BFDD6
:206080006D480068007A082805D140026D49088010206E49088068480068007A092801D1DF
:2060A000012000E00020C0B210BD08B56848006880B2001D674951F8100080B201EB4000F5
:2060C00000905D480068007A09282FD0009800785949096808700098401C0090009800784A
:2060E0005549096848700098401C00900098801C0090009931F8020B009100F0DBFE4E49D1
:20610000096848800098801C0090009931F8020B009100F0CFFE4849096888800098801C27
:2061200000900098008844490968C880012042490968087240480068C08810B9FFF7B5FD29
:2061400001E0FFF748FEFFF794FF08BD30B5424B1A78002112E0CBB2404C04EB8303D3F874
:20616000003C9BB248F68F742340CCB22343CCB23A4D05EB8404C4F8003C491C9142EAD3A4
:2061800040F08003324C241F236030BD10B52A480068047A022C01D0042C05D1FFF732FDD4
:2061A00025480068047A1CE0062C19D122480068407805280ED120480068007810F07F0F08
:2061C00008D11D490968C878FFF7C0FF24490968086A80471949096888688047082400E06D
:2061E0000824154909680C72FFF743FF10BD10B511480068047A032C01D0052C05D1FFF720
:20620000AEFC0D480068047A0EE0072C05D10B490968C8688047082406E0022C01D0042CA5
:2062200001D1082400E00824034909680C72FFF720FF10BD70470000040100200801002032
:20624000FC000020140100207000002016010020505C0040006000406C000020005000407E
:206260001001002010B50848084908600220096808720748074908600748084908600549B5
:2062800009680868804710BD14040020040100207000002008010020A00000201001002082
:2062A00010B500248AE147F6FF70F5490860F548008800F00F00F4490870084600780028D1
:2062C0007ED1EF484438006800F44050EF490880EF48D0F8000C00F03000EE490880E849F5
:2062E0004439096889B24BF68F7201EA020000BF80F40050E24944390860E549D1F8001CA0
:2063000089B248F6BF7201EA020000BF80F02000DB4944390860DB48008810F0100F3DD1B6
:206320000846006880B248F60F710840D849C1F8000CFFF72BFFD2494439096889B24BF6E4
:206340008F7201EA0200D149098811F4805F01D080F48050CD49098811F4005F01D080F45B
:206360000050C74944390860C949D1F8001C89B248F6BF7201EA0200C649098811F0100F8A
:2063800001D080F01000C349098811F0200F01D080F02000BA494439086010BDB84844384D
:2063A000006884B214F0800F40D0B5484438006880B248F60F710840B549C1F8000C00E0E0
:2063C000BAE0FFF7E3FEAE494439096889B24BF68F7201EA0200AD49098811F4805F01D0C1
:2063E00080F48050A949098811F4005F01D080F40050A34944390860A549D1F8001C89B2FE
:2064000048F6BF7201EA0200A249098811F0100F01D080F010009F49098811F0200F01D0B9
:2064200080F02000964944390860B6E714F4006F3FD0934844380068C0F30E0048F68F7127
:2064400008409349C1F8000CFFF72FFE8C494439096889B24BF68F7201EA02008B4909889E
:2064600011F4805F01D080F480508849098811F4005F01D080F4005081494439086084494C
:20648000D1F8001C89B248F6BF7201EA02008149098811F0100F01D080F010007D4909885D
:2064A00011F0200F01D080F0200075494439086073E714F4004F7DD0714844380068C0F35A
:2064C0000E0048F68F7108407149C1F8000CFFF78EFE6B494439096889B24BF68F7201EA1D
:2064E00002006A49098811F4805F01D080F480506649098811F4005F01D080F4005060497B
:20650000443908606249D1F8001C89B248F6BF7201EA02005F49098811F0100F01D080F0D5
:2065200010005C49098811F0200F01D080F0200053494439086030E753480078544901EB50
:206540008000D0F8000C84B214F4004F18D04E48007801EB8000D0F8000CC0F30E0048F625
:206560008F71084048490978494A02EB8101C1F8000C45490978491E474A52F821008047C1
:2065800014F0800F1AD040480078414901EB8000D0F8000C80B248F60F7108403A49097878
:2065A0003B4A02EB8101C1F8000C37490978491E3A4A00E002E052F8210080473048006862
:2065C00080B23049088010F4004F7FF46CAEE4E610B500244AE047F6FF70294908602948D4
:2065E000008800F00F002849087008460078284901EB8000D0F8000C84B214F4004F19D03E
:206600002148007801EB8000D0F8000CC0F30E0048F68F7108401C4909781D4A02EB810156
:20662000C1F8000C18490978491E1B4A52F8210080471BE014F0800F18D01348007814490F
:2066400001EB8000D0F8000C80B248F60F7108400D4909780E4A02EB8101C1F8000C0A490C
:206660000978491E0D4A52F8210080470448006880B20449088010F4004FACD110BD000051
:20668000445C00405C000020000100201401002000500040160100204000002024000020DD
:2066A000F0B502F1010C4FEA6C03DFF848E00EEB41071C460AE00678401C90F800C046EAAF
:2066C0000C2527F8025BBF1C401C641E002CF2D1F0BDF0B5561C7310064F07EB41051C462F
:2066E00004E080CD20F8017B401C641E002CF8D1F0BD000000600040F94908607047F84814
:20670000006880B27047F649091D08607047F448001D006880B27047F1480830006880B2EF
:206720007047EF490C3108607047ED480C30006880B270474FF6F8710140E94A1032116077
:206740007047E7481030006880B27047E54A02EB8002C2F8001C70470146E24800EB8100BA
:20676000D0F8000C80B27047DE4A02EB8002D2F8002C92B248F68F131A400A43D94B03EBF2
:206780008003C3F8002C70470146D64800EB8100D0F8000C00F4C060704710B5D14B03EB99
:2067A0008003D3F8003C9BB248F6BF7403EA040211F0100F01D082F0100211F0200F01D028
:2067C00082F02002C74B03EB8003C3F8002C10BD10B5C44B03EB8003D3F8003C9BB24BF614
:2067E0008F7403EA040211F4805F01D082F4805211F4005F01D082F40052BA4B03EB800333
:20680000C3F8002C10BD10B502460B461046FFF7A3FF0446012B07D124F48050B14901EB5C
:206820008201C1F8000C08E0022B06D124F01000AC4901EB8201C1F8000C10BD0146A948D2
:2068400000EB8100D0F8000C00F0300070470146A44800EB8100D0F8000C00F44050704773
:20686000A04A02EB8002D2F8002C92B248F6BF7302EA030181F0100181F02001994A02EB41
:206880008002C2F8001C7047964A02EB8002D2F8002C92B24BF68F7302EA030181F48051E7
:2068A00081F400518F4A02EB8002C2F8001C70478C4901EB8001D1F8001C89B241F48071B5
:2068C00048F68F721140874A02EB8002C2F8001C7047844901EB8001D1F8001C89B248F6C3
:2068E0008F6211407F4A02EB8002C2F8001C70477C4901EB8001D1F8001C89B248F68F6210
:206900001140784A02EB8002C2F8001C7047754901EB8001D1F8001C89B241F4807148F6B9
:206920008F7211406F4A02EB8002C2F8001C70476C4901EB8001D1F8001C89B241F48071E8
:2069400048F68F721140674A02EB8002C2F8001C7047644901EB8001D1F8001C89B248F682
:206960008F6211405F4A02EB8002C2F8001C704701465C4800EB8100D0F8000C00F03000E5
:20698000102801D1012000E0002080B270470146544800EB8100D0F8000C00F44050B0F597
:2069A000805F01D1012000E0002080B270474D4901EB8001D1F8001CC1F30E0148F68F7232
:2069C0001140484A02EB8002C2F8001C7047454901EB8001D1F8001C89B248F60F721140AD
:2069E000404A02EB8002C2F8001C70473D4901EB8001D1F8001C89B248F68F72114041F439
:206A00008041384A02EB8002C2F8001C7047354901EB8001D1F8001C89B248F68F7211409C
:206A200041F040012F4A02EB8002C2F8001C70472C4901EB8001D1F8001C11F4804F0FD0F5
:206A4000284901EB8001D1F8001C89B248F68F72114041F48041234A02EB8002C2F8001C00
:206A60007047204901EB8001D1F8001C11F0400F0FD01C4901EB8001D1F8001C89B248F645
:206A80008F72114041F04001164A02EB8002C2F8001C7047134A02EB8002D2F8002C92B2D0
:206AA00048F68F731A400A430E4B03EB8003C3F8002C704701460B4800EB8100D0F8000CAD
:206AC00000F00F00704710B54A105200044B10331B689BB203EBC003034C44F8132010BDF1
:206AE000405C0040005000400060004010B54A105300F34A126892B202EBC002121DF14C02
:206B000044F8123010BD0146ED48006880B200EBC100EC4A52F8100080B270470146E84878
:206B2000006880B200EBC100001DE64A52F8100080B27047E24A126892B202EBC002921C38
:206B4000E04B43F8121070473E290BDD4A1111F01F0F01D1531E9AB24FF4004343EA822336
:206B6000036007E04A1011F0010F01D0531C9AB293020360704710B5D14A126892B202EB9A
:206B8000C002921DCF4C04EB42033E290BDD4A1111F01F0F01D1541EA2B24FF4004444EA0F
:206BA00082241C6007E04A1011F0010F01D0541CA2B294021C6010BD0146C148006880B203
:206BC00000EBC100801CBF4A52F81000C0F3090070470146BA48006880B200EBC100801D6B
:206BE000B84A52F81000C0F30900704730B54B105B00B34C2468A4B204EBC004B14D45F85C
:206C0000143053105C00B04BD3F8503C9BB203EBC0031B1D45F8134030BD10B54A105200FB
:206C2000A74B1B689BB203EBC003A64C44F8132010BD10B54A105300A14A126892B202EBAB
:206C4000C002121D9F4C44F8123010BD01469C48006880B200EBC1009A4A52F8100080B22C
:206C6000704701469648006880B200EBC100001D944A52F8100080B2704730B501291FD1B5
:206C80008F4C2468A4B204EBC004A41C8D4D05EB44033E2A0BDD541112F01F0F01D1651E79
:206CA000ACB24FF4004545EA84251D6007E0541012F0010F01D0651CACB2A5021D600AE07E
:206CC000022908D17E4B1B689BB203EBC0039B1C7C4C44F8132001291FD1794C2468A4B2B7
:206CE00004EBC004A41D774D05EB44033E2A0BDD541112F01F0F01D1651EACB24FF4004505
:206D000045EA84251D6007E0541012F0010F01D0651CACB2A5021D600AE0022908D1684B4C
:206D20001B689BB203EBC0039B1D664C44F8132030BD30B501291FD1614B1B689BB203EBA3
:206D4000C0039B1C5F4D05EB43043E2A0BDD531112F01F0F01D15D1EABB24FF4004545EA91
:206D60008325256007E0531012F0010F01D05D1CABB29D0225600AE0022908D1504B1B68B3
:206D80009BB203EBC0039B1C4E4C44F8132030BD30B501291FD14A4B1B689BB203EBC00333
:206DA0009B1D484D05EB43043E2A0BDD531112F01F0F01D15D1EABB24FF4004545EA832562
:206DC000256007E0531012F0010F01D05D1CABB29D0225600AE0022908D1394B1B689BB2C5
:206DE00003EBC0039B1D374C44F8132030BD01463348006880B200EBC100801C314A52F8E2
:206E00001000C0F30900704701462D48006880B200EBC100801D2B4A52F81000C0F30900C5
:206E2000704701462648006880B200EBC100801D244A52F8100010F47C4F01D001207047C3
:206E40001F48006880B200EBC100801C1D4A52F810008005800D01D00220F0E70020EEE757
:206E6000012910D1184A02EB8002D2F8002C92B248F68F731A4042F04002134B03EB80031F
:206E8000C3F8002C11E002290FD10F4A02EB8002D2F8002C92B248F68F731A4042F480427B
:206EA000094B03EB8003C3F8002C7047024641EA022070470146CAB20B1243EA022070473D
:206EC000505C0040006000400050004032490143324A1160704770B5002100230F22C4785D
:206EE0000CB32E4C246804F4E064C4F5E064210AC1F10403CA40447804FA03F184781440A8
:206F000021430901264C0678A155047804F01F050124AC4005786D114FF0E02606EB8505BD
:206F2000C5F8004109E0047804F01F040125A5401C4C0678761144F8265070BD1A4A0A40D2
:206F40000243164B1B1F1A60704741B1134A121D126802434FF0E023C3F8102D07E00F4A69
:206F6000121D126882434FF0E023C3F8102D7047042808D14FF0E021096941F004014FF086
:206F8000E022116107E04FF0E021096921F004014FF0E022116170470000FA050CED00E08C
:206FA00000E400E080E100E080FFFF1FDA48006840F00100D849086008464068D74908408D
:206FC000D549486008460068D5490840D24908600846006820F4802008600846406820F470
:206FE000FE004860002088607047CB49096821F48031C94A11601146096821F4802111606E
:20700000B0F5803F03D0B0F5802F0ED106E0C249096841F48031C04A116007E0BE490968E4
:2070200041F4A021BC4A116000E000BF00BF704710B501460022002300204A11012A02D104
:20704000B54C236806E0022A02D1B34C236A01E0B14C636A01F01F02012494401C4201D04E
:20706000012000E0002010BD70B500240025002600BF3120FFF7DCFF0646641C16B9B4F569
:20708000A06FF6D13120FFF7D3FF08B1012500E00025284670BD00219F4A116821F0F801F5
:2070A00041EAC001116070479E49086070470022994B5A6822F47C1240EA01031A43964BDE
:2070C0005A6070479749086670470021924A516821F003010143516070478F48406800F054
:2070E0000C00704700218C4A516821F0F0010143516070470021884A516821F4E061014329
:20710000516070470021844A516821F4605141EAC0015160704729B17F4A527A02437E4BC8
:207120005A7206E07C4A527AC343DBB21A407A4B5A7270477B49D831086070470021764A09
:20714000516821F440410143516070470021724A20321170704A82F82010012802D00428F9
:207160000AD104E001216C4A2032117005E00521694A2032117000E000BF00BF70476A494C
:20718000086070476449096A0143634A11627047654944390860704730B500210022002300
:2071A00000245D4D6D6805F00C0121B1042905D0082923D105E05D4D056022E05B4D05602E
:2071C0001FE0554D6D6805F47012022505EB9242514D6D6805F480331BB9554D5543056041
:2071E0000BE04D4D6D6815F4003F03D0504D5543056002E04D4D5543056002E04B4D056028
:2072000000BF00BF444D6D6805F0F0010909494D6C5C0568E54045603F4D6D6805F4E06162
:20722000090A444D6C5C4568E54085603A4D6D6805F46051C90A3F4D6C5C4568E540C56007
:20724000354D6D6805F44041890B3A4D10356C5CC568B5FBF4F5056130BD29B12E4A52690F
:2072600002432D4B5A6104E02B4A526982432A4B5A61704729B1284A92690243264B9A61DE
:2072800004E0254A92698243234B9A61704729B1214AD2690243204BDA6104E01E4AD269C9
:2072A00082431D4BDA61704729B11B4AD2680243194BDA6004E0184AD2688243164BDA6073
:2072C000704729B1144A12690243134B1A6104E0114A12698243104B1A6170471249403946
:2072E000086070470F49C86470470B49C87170470948406A40F080700749486270470146DD
:207300000020054A92680A4201D0012000E000207047014988727047001002400000FFF8CB
:20732000FFFFF6FE000042428004424200127A0000093D001801002010B50446C149601A31
:207340008C422FD009DCC048201810D0B0F5806F16D0B0F5006F4AD11BE0B0F5806F2AD029
:20736000B0F5006F30D0B0F5406F40D135E001210420FFF799FF00210420FFF795FF37E0C5
:2073800001210820FFF790FF00210820FFF78CFF2EE001211020FFF787FF00211020FFF731
:2073A00083FF25E001212020FFF77EFF00212020FFF77AFF1CE001214020FFF775FF002198
:2073C0004020FFF771FF13E001218020FFF76CFF00218020FFF768FF0AE001210802FFF7A7
:2073E00063FF00214FF48070FFF75EFF00E000BF00BF10BD10B501210846FFF755FF0021B9
:207400000120FFF751FF10BDF0B500220023002400250026002791F803C00CF00F0291F8D6
:2074200003C01CF0100F03D091F802C04CEA0202B1F800C01CF0FF0F31D0066800242BE0E5
:207440004FF0010C0CFA04F5B1F800C00CEA0503AB4220D1A5004FF00F0C0CFA05F7BE439A
:2074600002FA05FC4CEA060691F803C0BCF1280F06D14FF0010C0CFA04FCC0F814C00AE0FE
:2074800091F803C0BCF1480F05D14FF0010C0CFA04FCC0F810C0641C082CD1D30660B1F885
:2074A00000C0BCF1FF0F34DD466800242EE004F1080C4FF0010E0EFA0CF5B1F800C00CEAA1
:2074C0000503AB4221D1A5004FF00F0C0CFA05F7BE4302FA05FC4CEA060691F803C0BCF18B
:2074E000280F05D104F1080C0EFA0CFEC0F814E091F803C0BCF1480F07D104F1080C4FF048
:20750000010E0EFA0CFEC0F810E0641C082CCED34660F0BD4FF6FF7101800221817004218B
:20752000C17070470246002093680B4201D0012000E0002070470146886880B270470246A2
:207540000020D3680B4201D0012000E0002070470146C86880B27047016170474161704708
:207560000AB1016100E041617047C16070474FF480320A4382618161826182698269704766
:207580000022324B1A684FF680731A4042EA00120A432E4B1A6070472D49C8617047F0B508
:2075A0000022002300250024284E7568C0F3034482B200F44016B6F5401F08D125F07065A5
:2075C000224E766826F07066204F7E6012E000F48016B6F5801F06D1032606FA04F39D4387
:2075E00045F0706506E0460D360102FA06F6B54345F0706521B1460D360102FA06F635434B
:20760000124E7560F0BD30B500228B071C0F0F2303FA04F20D4B08338C1053F824409443EA
:207620008D1043F825408C1053F824308C07240F00FA04F42343054C08348D1044F82530F9
:2076400030BD00000014014000F8FEBF0000014000002042016821F0010101600021016031
:2076600041608160C1608B4A811A90425BD012DC894AA0EB020190423AD007DC87494118C3
:207680001BD0142922D0282971D128E0142938D028297FD13EE0B1F56C7F5FD006DCB1F5E9
:2076A000627F49D0B1F5677F74D14EE0B1F5717F5ED0B1F5767F6DD163E077494439496803
:2076C00041F00F01744A443A516064E072494439496841F0F001704A443A51605BE06E4952
:2076E0004439496841F470616B4A443A516052E069494439496841F47041674A443A51609A
:2077000049E065494439496841F47021624A443A516040E060494439496841F470015E4A7E
:20772000443A516037E05C494439496841F07061594A443A51602EE05949096841F00F01FA
:20774000554A443AC2F8041425E05549096841F0F001514A443AC2F804141CE05049096813
:2077600041F470614C4A443AC2F8041413E011E04B49096841F47041474A443AC2F804146D
:2077800009E04749096841F47021434A443AC2F8041400E000BF00BF704710B500220268F6
:2077A00047F6F0739A430C6A8B6823430C6923434C6923438C692343CC6923434C6A234375
:2077C0008C6A23431A430260CB6843600B6883604B68C36010BD0021016041608160C1609A
:2077E000016141618161C161016241628162704721B1026842F00102026003E0026822F0AF
:207800000102026070471AB103680B43036002E003688B43036070470146486880B2704750
:2078200002460020002112F0805F03D01C4B1B1F196802E0184B443B1968114201D001205F
:2078400000E00020704710F0805F02D01449086002E011494439486070470246002000215A
:2078600012F0805F03D00E4B1B1F196802E00A4B443B1968114201D0012000E0002070470D
:2078800010F0805F02D00649086002E002494439486070478000024044000240F8FFFDBF7C
:2078A0000404024010B50446D749601A8C422BD006DCD648201813D0B0F5806F38D119E05B
:2078C000B0F5806F2AD0B0F56C4F31D101218803FFF7EAFC00214FF48040FFF7E5FC28E02C
:2078E00001214804FFF7EDFC00214FF40030FFF7E8FC1EE001218804FFF7E3FC00214FF4E8
:207900008020FFF7DEFC14E00121C804FFF7D9FC00214FF40020FFF7D4FC0AE001210805E7
:20792000FFF7CFFC00214FF48010FFF7CAFC00E000BF00BF10BD2DE9F04786B004460D468B
:207940000026002700BF00BFB246A246268A4CF6FF700640E88806432682A6894EF6F310FE
:207960000640A88829890843698908430643A681A68A4FF6FF400640A8890643A68201A8A2
:20798000FFF70AFC5446A248824501D1049F00E0039F07EBC70000EB071029688900B0FB29
:2079A000F1F86420B8FBF0F006013009642101FB1089322101EB09106421B0FBF1F000F014
:2079C0000F000643268106B0BDE8F0874FF41651016000218180C18001810C2141810021D6
:2079E0008181704710B50022028A4FF2FF031A400B884C8823438C882343CC8823431A4360
:207A0000028210BD0021018041808180C180704721B1828942F40052828104E082894DF61F
:207A2000FF731A4082817047F0B500240025002600230346C1F3421401F01F05012707FAF8
:207A400005F6012C01D10C3304E0022C01D1103300E014331AB11F6837431F6002E01F68EB
:207A6000B7431F60F0BD10B51AB1838A0B43838204E0838ACC43A4B22340838210BD028AD9
:207A80004FF6F0731A400282028A0A430282704782894FF2FF731A40828182890A438281D6
:207AA000704721B1828942F00202828104E082894FF6FD731A4082817047028A4FF6DF731E
:207AC0001A400282028A0A430282704721B1028A42F48042028204E0028A4BF6FF731A405D
:207AE00002827047C1F308028280704701468888C0F308007047818941F001018181704715
:207B0000028BD2B20283028B42EA012202837047028B02F47F420283028B0A4302837047D8
:207B200021B1828A42F02002828204E0828A4FF6DF731A408282704721B1828A42F0100251
:207B4000828204E0828A4FF6EF731A408282704721B1828A42F00802828204E0828A4FF622
:207B6000F7731A4082827047828A4FF6FB731A408282828A0A438282704721B1828A42F045
:207B80000202828204E0828A4FF6FD731A40828270470246002013880B4201D0012000E001
:207BA00000207047CA430280704770B502460023002400250020C1F3421501F01F04012669
:207BC00006FA04F4012D02D19689344006E0022D02D1168A344001E0968A34400B12012664
:207BE00006FA03F31688334014B10BB1012000E0002070BD10B5002200230A120124944090
:207C0000A3B2DC43048010BD004C004000BCFFBF003801400021FA4A116801F038010143D4
:207C200011607047F649096821F00801F44A116011460968014311607047F149096821F0B3
:207C40001001EF4A116011460968014311607047EC48EB494860EC4848607047E8480069F9
:207C600040F08000E649086170470420E449C96801F00101012901D101200EE0E049C9682B
:207C800011F0040F01D0022007E0DD49C96811F0100F01D0032000E0042070470020FF2091
:207CA00000E0401E0028FCD1704770B504460425FFF7DBFF054605E0FFF7F0FFFFF7D5FF93
:207CC0000546641E012D01D1002CF5D104B90525284670BD70B50446042540F6FF70FFF730
:207CE000E4FF0546042D19D1C548006940F00200C349086108464461006940F040000861E9
:207D000040F6FF70FFF7D1FF0546012D06D0BC48006941F6FD710840B9490861284670BD49
:207D200010B5042440F6FF70FFF7BFFF0446042C18D1B348006940F00400B1490861084651
:207D4000006940F04000086140F6FF70FFF7ADFF0446012C06D0AA48006941F6FB71084007
:207D6000A7490861204610BD10B5042440F6FF70FFF79BFF0446042C3BD1A248A049886014
:207D8000A14888600846006940F0200008610846006940F04000086140F6FF70FFF785FFF3
